{
    "contractName": "Ballot",
    "abi": [
        {
            "inputs": [
                {
                    "internalType": "string[]",
                    "name": "choicesNames",
                    "type": "string[]"
                },
                {
                    "internalType": "string",
                    "name": "keyCID",
                    "type": "string"
                },
                {
                    "internalType": "uint256",
                    "name": "deadline",
                    "type": "uint256"
                }
            ],
            "stateMutability": "nonpayable",
            "type": "constructor"
        },
        {
            "inputs": [],
            "name": "chairperson",
            "outputs": [
                {
                    "internalType": "address",
                    "name": "",
                    "type": "address"
                }
            ],
            "stateMutability": "view",
            "type": "function"
        },
        {
            "inputs": [
                {
                    "internalType": "uint256",
                    "name": "",
                    "type": "uint256"
                }
            ],
            "name": "choices",
            "outputs": [
                {
                    "internalType": "string",
                    "name": "name",
                    "type": "string"
                }
            ],
            "stateMutability": "view",
            "type": "function"
        },
        {
            "inputs": [
                {
                    "internalType": "string",
                    "name": "mostVoted",
                    "type": "string"
                }
            ],
            "name": "endVoting",
            "outputs": [],
            "stateMutability": "nonpayable",
            "type": "function"
        },
        {
            "inputs": [],
            "name": "getAvailableChoices",
            "outputs": [
                {
                    "components": [
                        {
                            "internalType": "string",
                            "name": "name",
                            "type": "string"
                        }
                    ],
                    "internalType": "struct Ballot.Choice[]",
                    "name": "",
                    "type": "tuple[]"
                }
            ],
            "stateMutability": "view",
            "type": "function"
        },
        {
            "inputs": [],
            "name": "getVotes",
            "outputs": [
                {
                    "components": [
                        {
                            "internalType": "string",
                            "name": "CID",
                            "type": "string"
                        },
                        {
                            "internalType": "address",
                            "name": "voterAddress",
                            "type": "address"
                        }
                    ],
                    "internalType": "struct Ballot.Vote[]",
                    "name": "",
                    "type": "tuple[]"
                }
            ],
            "stateMutability": "view",
            "type": "function"
        },
        {
            "inputs": [
                {
                    "internalType": "address",
                    "name": "voter",
                    "type": "address"
                },
                {
                    "internalType": "string",
                    "name": "id",
                    "type": "string"
                }
            ],
            "name": "giveRightToVote",
            "outputs": [],
            "stateMutability": "nonpayable",
            "type": "function"
        },
        {
            "inputs": [],
            "name": "isActive",
            "outputs": [
                {
                    "internalType": "bool",
                    "name": "",
                    "type": "bool"
                }
            ],
            "stateMutability": "view",
            "type": "function"
        },
        {
            "inputs": [],
            "name": "publicKeyCID",
            "outputs": [
                {
                    "internalType": "string",
                    "name": "",
                    "type": "string"
                }
            ],
            "stateMutability": "view",
            "type": "function"
        },
        {
            "inputs": [],
            "name": "untilTo",
            "outputs": [
                {
                    "internalType": "uint256",
                    "name": "",
                    "type": "uint256"
                }
            ],
            "stateMutability": "view",
            "type": "function"
        },
        {
            "inputs": [
                {
                    "internalType": "string",
                    "name": "CID",
                    "type": "string"
                }
            ],
            "name": "vote",
            "outputs": [],
            "stateMutability": "nonpayable",
            "type": "function"
        },
        {
            "inputs": [
                {
                    "internalType": "address",
                    "name": "",
                    "type": "address"
                }
            ],
            "name": "voters",
            "outputs": [
                {
                    "internalType": "uint256",
                    "name": "weight",
                    "type": "uint256"
                },
                {
                    "internalType": "bool",
                    "name": "voted",
                    "type": "bool"
                },
                {
                    "internalType": "uint256",
                    "name": "voteIndex",
                    "type": "uint256"
                },
                {
                    "internalType": "string",
                    "name": "id",
                    "type": "string"
                }
            ],
            "stateMutability": "view",
            "type": "function"
        },
        {
            "inputs": [
                {
                    "internalType": "uint256",
                    "name": "",
                    "type": "uint256"
                }
            ],
            "name": "votes",
            "outputs": [
                {
                    "internalType": "string",
                    "name": "CID",
                    "type": "string"
                },
                {
                    "internalType": "address",
                    "name": "voterAddress",
                    "type": "address"
                }
            ],
            "stateMutability": "view",
            "type": "function"
        },
        {
            "inputs": [],
            "name": "winner",
            "outputs": [
                {
                    "internalType": "string",
                    "name": "",
                    "type": "string"
                }
            ],
            "stateMutability": "view",
            "type": "function"
        }
    ],
    "bytecode": "60806040523480156200001157600080fd5b506040516200140338038062001403833981016040819052620000349162000255565b600080546001600160a01b03191633178082556001600160a01b031681526005602090815260409091206001905582516200007691600291908501906200011e565b5060005b8351811015620001055760066040518060200160405280868481518110620000b257634e487b7160e01b600052603260045260246000fd5b60209081029190910181015190915282546001810184556000938452928190208251805193949190910192620000ec92849201906200011e565b5050508080620000fc906200039f565b9150506200007a565b5060035550506004805460ff19166001179055620003dd565b8280546200012c9062000362565b90600052602060002090601f0160209004810192826200015057600085556200019b565b82601f106200016b57805160ff19168380011785556200019b565b828001600101855582156200019b579182015b828111156200019b5782518255916020019190600101906200017e565b50620001a9929150620001ad565b5090565b5b80821115620001a95760008155600101620001ae565b600082601f830112620001d5578081fd5b81516001600160401b03811115620001f157620001f1620003c7565b602062000207601f8301601f191682016200032f565b82815285828487010111156200021b578384fd5b835b838110156200023a5785810183015182820184015282016200021d565b838111156200024b57848385840101525b5095945050505050565b6000806000606084860312156200026a578283fd5b83516001600160401b038082111562000281578485fd5b818601915086601f83011262000295578485fd5b8151602082821115620002ac57620002ac620003c7565b620002bb81828402016200032f565b82815281810190858301895b85811015620002f457620002e18d8684518b0101620001c4565b84529284019290840190600101620002c7565b5050918901519197509093505050808211156200030f578384fd5b506200031e86828701620001c4565b925050604084015190509250925092565b604051601f8201601f191681016001600160401b03811182821017156200035a576200035a620003c7565b604052919050565b6002810460018216806200037757607f821691505b602082108114156200039957634e487b7160e01b600052602260045260246000fd5b50919050565b6000600019821415620003c057634e487b7160e01b81526011600452602481fd5b5060010190565b634e487b7160e01b600052604160045260246000fd5b61101680620003ed6000396000f3fe608060405234801561001057600080fd5b50600436106100cf5760003560e01c806368957b201161008c578063dfbf53ae11610066578063dfbf53ae146101b2578063e7c1a406146101ba578063f6fd7fde146101cf578063fc36e15b146101e2576100cf565b806368957b20146101675780638caea7131461017a578063a3ec138d1461018f576100cf565b80630dc96015146100d457806322f3e2d4146100f25780632e4176cf146101075780633b00a3e31461011c578063432e24c6146101315780635df8133014610146575b600080fd5b6100dc6101f5565b6040516100e99190610ca6565b60405180910390f35b6100fa6102f9565b6040516100e99190610d22565b61010f610302565b6040516100e99190610c2a565b61012f61012a366004610b8c565b610311565b005b6101396103ad565b6040516100e99190610d2d565b610159610154366004610bc7565b61043b565b6040516100e9929190610d40565b61012f610175366004610b40565b610500565b61018261061c565b6040516100e99190610f31565b6101a261019d366004610b1f565b610622565b6040516100e99493929190610f3a565b6101396106d9565b6101c26106e6565b6040516100e99190610c3e565b6101396101dd366004610bc7565b6107ca565b61012f6101f0366004610b8c565b610878565b60606007805480602002602001604051908101604052809291908181526020016000905b828210156102f0578382906000526020600020906002020160405180604001604052908160008201805461024c90610f8f565b80601f016020809104026020016040519081016040528092919081815260200182805461027890610f8f565b80156102c55780601f1061029a576101008083540402835291602001916102c5565b820191906000526020600020905b8154815290600101906020018083116102a857829003601f168201915b50505091835250506001918201546001600160a01b0316602091820152918352929092019101610219565b50505050905090565b60045460ff1681565b6000546001600160a01b031681565b600354421061033b5760405162461bcd60e51b815260040161033290610d98565b60405180910390fd5b60045460ff1615156001146103625760405162461bcd60e51b815260040161033290610e8c565b6000546001600160a01b0316331461038c5760405162461bcd60e51b815260040161033290610efa565b805161039f9060019060208401906109e3565b50506004805460ff19169055565b600280546103ba90610f8f565b80601f01602080910402602001604051908101604052809291908181526020018280546103e690610f8f565b80156104335780601f1061040857610100808354040283529160200191610433565b820191906000526020600020905b81548152906001019060200180831161041657829003601f168201915b505050505081565b6007818154811061044b57600080fd5b906000526020600020906002020160009150905080600001805461046e90610f8f565b80601f016020809104026020016040519081016040528092919081815260200182805461049a90610f8f565b80156104e75780601f106104bc576101008083540402835291602001916104e7565b820191906000526020600020905b8154815290600101906020018083116104ca57829003601f168201915b505050600190930154919250506001600160a01b031682565b60035442106105215760405162461bcd60e51b815260040161033290610d98565b60045460ff1615156001146105485760405162461bcd60e51b815260040161033290610e8c565b6000546001600160a01b031633146105725760405162461bcd60e51b815260040161033290610e0d565b6001600160a01b03821660009081526005602052604090206001015460ff16156105ae5760405162461bcd60e51b815260040161033290610ec3565b6001600160a01b038216600090815260056020526040902054156105e45760405162461bcd60e51b815260040161033290610e55565b6001600160a01b0382166000908152600560209081526040909120600181558251610617926003909201918401906109e3565b505050565b60035481565b6005602052600090815260409020805460018201546002830154600384018054939460ff9093169391929161065690610f8f565b80601f016020809104026020016040519081016040528092919081815260200182805461068290610f8f565b80156106cf5780601f106106a4576101008083540402835291602001916106cf565b820191906000526020600020905b8154815290600101906020018083116106b257829003601f168201915b5050505050905084565b600180546103ba90610f8f565b60606006805480602002602001604051908101604052809291908181526020016000905b828210156102f05783829060005260206000200160405180602001604052908160008201805461073990610f8f565b80601f016020809104026020016040519081016040528092919081815260200182805461076590610f8f565b80156107b25780601f10610787576101008083540402835291602001916107b2565b820191906000526020600020905b81548152906001019060200180831161079557829003601f168201915b5050505050815250508152602001906001019061070a565b600681815481106107da57600080fd5b6000918252602090912001805490915081906107f590610f8f565b80601f016020809104026020016040519081016040528092919081815260200182805461082190610f8f565b801561086e5780601f106108435761010080835404028352916020019161086e565b820191906000526020600020905b81548152906001019060200180831161085157829003601f168201915b5050505050905081565b60035442106108995760405162461bcd60e51b815260040161033290610d98565b60045460ff1615156001146108c05760405162461bcd60e51b815260040161033290610e8c565b33600090815260056020526040902080546108ed5760405162461bcd60e51b815260040161033290610d6a565b600181015460ff16156109125760405162461bcd60e51b815260040161033290610dc2565b81516109305760405162461bcd60e51b815260040161033290610dea565b6001818101805460ff19168217905560075461094b91610f6b565b600280830191909155604080518082019091528381523360208083019190915260078054600181018255600091909152825180519394919091027fa66cc928b5edb82af9bd49922954155ab7b0942694bea4ce44661d9a8736c68801926109b592849201906109e3565b5060209190910151600190910180546001600160a01b0319166001600160a01b039092169190911790555050565b8280546109ef90610f8f565b90600052602060002090601f016020900481019282610a115760008555610a57565b82601f10610a2a57805160ff1916838001178555610a57565b82800160010185558215610a57579182015b82811115610a57578251825591602001919060010190610a3c565b50610a63929150610a67565b5090565b5b80821115610a635760008155600101610a68565b80356001600160a01b0381168114610a9357600080fd5b919050565b600082601f830112610aa8578081fd5b813567ffffffffffffffff80821115610ac357610ac3610fca565b604051601f8301601f19908116603f01168101908282118183101715610aeb57610aeb610fca565b81604052838152866020858801011115610b03578485fd5b8360208701602083013792830160200193909352509392505050565b600060208284031215610b30578081fd5b610b3982610a7c565b9392505050565b60008060408385031215610b52578081fd5b610b5b83610a7c565b9150602083013567ffffffffffffffff811115610b76578182fd5b610b8285828601610a98565b9150509250929050565b600060208284031215610b9d578081fd5b813567ffffffffffffffff811115610bb3578182fd5b610bbf84828501610a98565b949350505050565b600060208284031215610bd8578081fd5b5035919050565b60008151808452815b81811015610c0457602081850181015186830182015201610be8565b81811115610c155782602083870101525b50601f01601f19169290920160200192915050565b6001600160a01b0391909116815260200190565b6000602080830181845280855180835260408601915060408482028701019250838701855b82811015610c9957878503603f19018452815151868652610c8687870182610bdf565b9550509285019290850190600101610c63565b5092979650505050505050565b60208082528251828201819052600091906040908185019080840286018301878501865b83811015610d1457888303603f1901855281518051878552610cee88860182610bdf565b918901516001600160a01b03169489019490945294870194925090860190600101610cca565b509098975050505050505050565b901515815260200190565b600060208252610b396020830184610bdf565b600060408252610d536040830185610bdf565b905060018060a01b03831660208301529392505050565b602080825260149082015273486173206e6f20726967687420746f20766f746560601b604082015260600190565b60208082526010908201526f546f6f206c61746520746f20766f746560801b604082015260600190565b6020808252600e908201526d20b63932b0b23c903b37ba32b21760911b604082015260600190565b602080825260099082015268115b5c1d1e4810d25160ba1b604082015260600190565b60208082526028908201527f4f6e6c79206368616972706572736f6e2063616e2067697665207269676874206040820152673a37903b37ba329760c11b606082015260800190565b6020808252601a908201527f54686520766f74657220616c65726164792063616e20766f7465000000000000604082015260600190565b60208082526017908201527f42616c6c6f74206973206e6f7420617661696c61626c65000000000000000000604082015260600190565b60208082526018908201527f54686520766f74657220616c726561647920766f7465642e0000000000000000604082015260600190565b6020808252601d908201527f4f6e6c79206368616972706572736f6e2063616e20656e6420766f7465000000604082015260600190565b90815260200190565b6000858252841515602083015283604083015260806060830152610f616080830184610bdf565b9695505050505050565b60008219821115610f8a57634e487b7160e01b81526011600452602481fd5b500190565b600281046001821680610fa357607f821691505b60208210811415610fc457634e487b7160e01b600052602260045260246000fd5b50919050565b634e487b7160e01b600052604160045260246000fdfea26469706673582212204667b1e1b34953e045b8eed769405218260d66314faef9f39c1a1d6766f7f13c64736f6c63430008010033",
    "sourcePath": "/home/david/Projects/HEBallot/contracts/Ballot.sol",
    "compiler": {
        "name": "solc",
        "version": "0.8.1+commit.df193b15"
    },
    "functionHashes": {
        "chairperson()": "2e4176cf",
        "choices(uint256)": "f6fd7fde",
        "endVoting(string)": "3b00a3e3",
        "getAvailableChoices()": "e7c1a406",
        "getVotes()": "0dc96015",
        "giveRightToVote(address,string)": "68957b20",
        "isActive()": "22f3e2d4",
        "publicKeyCID()": "432e24c6",
        "untilTo()": "8caea713",
        "vote(string)": "fc36e15b",
        "voters(address)": "a3ec138d",
        "votes(uint256)": "5df81330",
        "winner()": "dfbf53ae"
    },
    "gasEstimates": {
        "creation": {
            "codeDepositCost": "823600",
            "executionCost": "infinite",
            "totalCost": "infinite"
        },
        "external": {
            "chairperson()": "1115",
            "choices(uint256)": "infinite",
            "endVoting(string)": "infinite",
            "getAvailableChoices()": "infinite",
            "getVotes()": "infinite",
            "giveRightToVote(address,string)": "infinite",
            "isActive()": "1063",
            "publicKeyCID()": "infinite",
            "untilTo()": "1073",
            "vote(string)": "infinite",
            "voters(address)": "infinite",
            "votes(uint256)": "infinite",
            "winner()": "infinite"
        }
    }
}