{
    "contractName": "MinistryOfEducation",
    "abi": [
        {
            "inputs": [
                {
                    "internalType": "string",
                    "name": "pubKeyCID",
                    "type": "string"
                },
                {
                    "internalType": "string[]",
                    "name": "initialCompetences",
                    "type": "string[]"
                }
            ],
            "stateMutability": "nonpayable",
            "type": "constructor"
        },
        {
            "anonymous": false,
            "inputs": [
                {
                    "indexed": true,
                    "internalType": "address",
                    "name": "personAddr",
                    "type": "address"
                }
            ],
            "name": "PersonAssignedTo",
            "type": "event"
        },
        {
            "anonymous": false,
            "inputs": [
                {
                    "indexed": true,
                    "internalType": "address",
                    "name": "personAddr",
                    "type": "address"
                }
            ],
            "name": "PersonRegistered",
            "type": "event"
        },
        {
            "anonymous": false,
            "inputs": [
                {
                    "indexed": true,
                    "internalType": "address",
                    "name": "personAddr",
                    "type": "address"
                }
            ],
            "name": "SkillAssigned",
            "type": "event"
        },
        {
            "inputs": [
                {
                    "internalType": "address",
                    "name": "learner",
                    "type": "address"
                }
            ],
            "name": "appendLearner",
            "outputs": [],
            "stateMutability": "nonpayable",
            "type": "function"
        },
        {
            "inputs": [],
            "name": "chairman",
            "outputs": [
                {
                    "internalType": "address",
                    "name": "",
                    "type": "address"
                }
            ],
            "stateMutability": "view",
            "type": "function"
        },
        {
            "inputs": [],
            "name": "getCompetences",
            "outputs": [
                {
                    "internalType": "string[]",
                    "name": "",
                    "type": "string[]"
                }
            ],
            "stateMutability": "view",
            "type": "function"
        },
        {
            "inputs": [
                {
                    "internalType": "address",
                    "name": "educInstAddr",
                    "type": "address"
                }
            ],
            "name": "getLearners",
            "outputs": [
                {
                    "internalType": "address[]",
                    "name": "",
                    "type": "address[]"
                }
            ],
            "stateMutability": "view",
            "type": "function"
        },
        {
            "inputs": [
                {
                    "internalType": "address",
                    "name": "personAddr",
                    "type": "address"
                }
            ],
            "name": "getMembership",
            "outputs": [
                {
                    "internalType": "address[]",
                    "name": "",
                    "type": "address[]"
                }
            ],
            "stateMutability": "view",
            "type": "function"
        },
        {
            "inputs": [
                {
                    "internalType": "address",
                    "name": "",
                    "type": "address"
                }
            ],
            "name": "people",
            "outputs": [
                {
                    "internalType": "string",
                    "name": "name",
                    "type": "string"
                },
                {
                    "internalType": "string",
                    "name": "contact",
                    "type": "string"
                },
                {
                    "internalType": "string",
                    "name": "skills",
                    "type": "string"
                },
                {
                    "internalType": "bool",
                    "name": "isExist",
                    "type": "bool"
                }
            ],
            "stateMutability": "view",
            "type": "function"
        },
        {
            "inputs": [],
            "name": "pubKey",
            "outputs": [
                {
                    "internalType": "string",
                    "name": "",
                    "type": "string"
                }
            ],
            "stateMutability": "view",
            "type": "function"
        },
        {
            "inputs": [
                {
                    "internalType": "string",
                    "name": "name",
                    "type": "string"
                },
                {
                    "internalType": "address",
                    "name": "subj",
                    "type": "address"
                }
            ],
            "name": "registerInstitution",
            "outputs": [],
            "stateMutability": "nonpayable",
            "type": "function"
        },
        {
            "inputs": [
                {
                    "internalType": "string",
                    "name": "name",
                    "type": "string"
                },
                {
                    "internalType": "string",
                    "name": "contact",
                    "type": "string"
                },
                {
                    "internalType": "string",
                    "name": "initialSkills",
                    "type": "string"
                }
            ],
            "name": "registerPerson",
            "outputs": [],
            "stateMutability": "nonpayable",
            "type": "function"
        },
        {
            "inputs": [
                {
                    "internalType": "address",
                    "name": "",
                    "type": "address"
                }
            ],
            "name": "registry",
            "outputs": [
                {
                    "internalType": "string",
                    "name": "name",
                    "type": "string"
                },
                {
                    "internalType": "bool",
                    "name": "isExist",
                    "type": "bool"
                },
                {
                    "internalType": "address",
                    "name": "from",
                    "type": "address"
                }
            ],
            "stateMutability": "view",
            "type": "function"
        },
        {
            "inputs": [
                {
                    "internalType": "address",
                    "name": "personAddr",
                    "type": "address"
                },
                {
                    "internalType": "string",
                    "name": "newSkillsCID",
                    "type": "string"
                }
            ],
            "name": "setSkills",
            "outputs": [],
            "stateMutability": "nonpayable",
            "type": "function"
        }
    ],
    "bytecode": "60806040523480156200001157600080fd5b50604051620015de380380620015de833981016040819052620000349162000216565b600380546001600160a01b0319163317905581516200005b906004906020850190620000df565b5060005b8151811015620000d65760028282815181106200008c57634e487b7160e01b600052603260045260246000fd5b60209081029190910181015182546001810184556000938452928290208151620000c09491909101929190910190620000df565b5080620000cd8162000354565b9150506200005f565b50505062000392565b828054620000ed9062000317565b90600052602060002090601f0160209004810192826200011157600085556200015c565b82601f106200012c57805160ff19168380011785556200015c565b828001600101855582156200015c579182015b828111156200015c5782518255916020019190600101906200013f565b506200016a9291506200016e565b5090565b5b808211156200016a57600081556001016200016f565b600082601f83011262000196578081fd5b81516001600160401b03811115620001b257620001b26200037c565b6020620001c8601f8301601f19168201620002e4565b8281528582848701011115620001dc578384fd5b835b83811015620001fb578581018301518282018401528201620001de565b838111156200020c57848385840101525b5095945050505050565b6000806040838503121562000229578182fd5b82516001600160401b038082111562000240578384fd5b6200024e8683870162000185565b935060209150818501518181111562000265578384fd5b8501601f8101871362000276578384fd5b8051828111156200028b576200028b6200037c565b6200029a8485830201620002e4565b8181528481019350828501865b83811015620002d457620002c18b88845188010162000185565b86529486019490860190600101620002a7565b5096999098509650505050505050565b604051601f8201601f191681016001600160401b03811182821017156200030f576200030f6200037c565b604052919050565b6002810460018216806200032c57607f821691505b602082108114156200034e57634e487b7160e01b600052602260045260246000fd5b50919050565b60006000198214156200037557634e487b7160e01b81526011600452602481fd5b5060010190565b634e487b7160e01b600052604160045260246000fd5b61123c80620003a26000396000f3fe608060405234801561001057600080fd5b50600436106100a95760003560e01c80637958822a116100715780637958822a1461014457806387f7b97514610159578063ac2a5dfd1461016e578063bd23cd3014610183578063cac7117f14610196578063e674254b146101a9576100a9565b806303114680146100ae578063038defd7146100cc57806307de9735146100ee57806334c5a0441461011157806355f9eaa814610131575b600080fd5b6100b66101bc565b6040516100c39190610e20565b60405180910390f35b6100df6100da366004610c37565b610295565b6040516100c393929190610e93565b6101016100fc366004610c37565b61034c565b6040516100c39493929190610ec6565b61012461011f366004610c37565b61050f565b6040516100c39190610dd3565b61012461013f366004610c37565b6105d6565b610157610152366004610cf0565b61068e565b005b610161610752565b6040516100c39190610dbf565b610176610761565b6040516100c39190610e80565b610157610191366004610ca4565b6107ef565b6101576101a4366004610c58565b6108b5565b6101576101b7366004610c37565b6109d8565b60606002805480602002602001604051908101604052809291908181526020016000905b8282101561028c5783829060005260206000200180546101ff906111b5565b80601f016020809104026020016040519081016040528092919081815260200182805461022b906111b5565b80156102785780601f1061024d57610100808354040283529160200191610278565b820191906000526020600020905b81548152906001019060200180831161025b57829003601f168201915b5050505050815260200190600101906101e0565b50505050905090565b6000602081905290815260409020805481906102b0906111b5565b80601f01602080910402602001604051908101604052809291908181526020018280546102dc906111b5565b80156103295780601f106102fe57610100808354040283529160200191610329565b820191906000526020600020905b81548152906001019060200180831161030c57829003601f168201915b505050506001830154600490930154919260ff16916001600160a01b0316905083565b600160205260009081526040902080548190610367906111b5565b80601f0160208091040260200160405190810160405280929190818152602001828054610393906111b5565b80156103e05780601f106103b5576101008083540402835291602001916103e0565b820191906000526020600020905b8154815290600101906020018083116103c357829003601f168201915b5050505050908060010180546103f5906111b5565b80601f0160208091040260200160405190810160405280929190818152602001828054610421906111b5565b801561046e5780601f106104435761010080835404028352916020019161046e565b820191906000526020600020905b81548152906001019060200180831161045157829003601f168201915b505050505090806002018054610483906111b5565b80601f01602080910402602001604051908101604052809291908181526020018280546104af906111b5565b80156104fc5780601f106104d1576101008083540402835291602001916104fc565b820191906000526020600020905b8154815290600101906020018083116104df57829003601f168201915b5050506003909301549192505060ff1684565b6001600160a01b03811660009081526001602081905260409091206003015460609160ff90911615151461055e5760405162461bcd60e51b815260040161055590611099565b60405180910390fd5b6001600160a01b038216600090815260016020908152604091829020600401805483518184028101840190945280845290918301828280156105c957602002820191906000526020600020905b81546001600160a01b031681526001909101906020018083116105ab575b505050505090505b919050565b6001600160a01b038116600090815260208190526040902060019081015460609160ff90911615151461061b5760405162461bcd60e51b815260040161055590610fee565b6001600160a01b03821660009081526020818152604091829020600201805483518184028101840190945280845290918301828280156105c9576020028201919060005260206000209081546001600160a01b031681526001909101906020018083116105ab5750505050509050919050565b3360009081526001602052604090206003015460ff16156106c15760405162461bcd60e51b8152600401610555906110e0565b336000908152600160209081526040909120845190916106e5918391870190610b00565b5082516106fb9060018301906020860190610b00565b5081516107119060028301906020850190610b00565b5060038101805460ff1916600117905560405133907f0dade98f6fdb40eec9f2b1c19f4065c7ee7ea16790dc3d2caff38fa4e19d7e4990600090a250505050565b6003546001600160a01b031681565b6004805461076e906111b5565b80601f016020809104026020016040519081016040528092919081815260200182805461079a906111b5565b80156107e75780601f106107bc576101008083540402835291602001916107e7565b820191906000526020600020905b8154815290600101906020018083116107ca57829003601f168201915b505050505081565b6003546001600160a01b031633146108195760405162461bcd60e51b815260040161055590610f5a565b6001600160a01b03811660009081526020819052604090206001015460ff16156108555760405162461bcd60e51b815260040161055590610fb7565b6001600160a01b03811660009081526020818152604090912083519091610880918391860190610b00565b506001818101805460ff1916909117905560040180546001600160a01b0319166001600160a01b039290921691909117905550565b33600090815260208190526040902060019081015460ff161515146108ec5760405162461bcd60e51b81526004016105559061115f565b336000908152602081815260408083206001600160a01b038616845260030190915290205460ff1615156001146109355760405162461bcd60e51b815260040161055590610f13565b336000818152602081905260409020600401546001600160a01b03161461096e5760405162461bcd60e51b81526004016105559061104b565b6001600160a01b03821660009081526001602090815260409091208251909161099e916002840191850190610b00565b506040516001600160a01b038416907fb3de97244c5103265585ae6f0e65fabfb7a605dc74b66a8be1731334b568581790600090a2505050565b6001600160a01b03811660009081526001602081905260409091206003015460ff16151514610a195760405162461bcd60e51b815260040161055590611099565b336000908152602081815260408083206001600160a01b038516845260030190915290205460ff1615610a5e5760405162461bcd60e51b815260040161055590611128565b33600081815260208181526040808320600281018054600181810183559186528486200180546001600160a01b0389166001600160a01b0319918216811790925581875260039093018552838620805460ff19168317905581855283862060040180549283018155865293852001805490911690941790935591517f0b3a6db0b9464d6f8efd92e0cf34cdb6cd32daa683d72f486c8a0f50c096f18f9190a250565b828054610b0c906111b5565b90600052602060002090601f016020900481019282610b2e5760008555610b74565b82601f10610b4757805160ff1916838001178555610b74565b82800160010185558215610b74579182015b82811115610b74578251825591602001919060010190610b59565b50610b80929150610b84565b5090565b5b80821115610b805760008155600101610b85565b80356001600160a01b03811681146105d157600080fd5b600082601f830112610bc0578081fd5b813567ffffffffffffffff80821115610bdb57610bdb6111f0565b604051601f8301601f19908116603f01168101908282118183101715610c0357610c036111f0565b81604052838152866020858801011115610c1b578485fd5b8360208701602083013792830160200193909352509392505050565b600060208284031215610c48578081fd5b610c5182610b99565b9392505050565b60008060408385031215610c6a578081fd5b610c7383610b99565b9150602083013567ffffffffffffffff811115610c8e578182fd5b610c9a85828601610bb0565b9150509250929050565b60008060408385031215610cb6578182fd5b823567ffffffffffffffff811115610ccc578283fd5b610cd885828601610bb0565b925050610ce760208401610b99565b90509250929050565b600080600060608486031215610d04578081fd5b833567ffffffffffffffff80821115610d1b578283fd5b610d2787838801610bb0565b94506020860135915080821115610d3c578283fd5b610d4887838801610bb0565b93506040860135915080821115610d5d578283fd5b50610d6a86828701610bb0565b9150509250925092565b60008151808452815b81811015610d9957602081850181015186830182015201610d7d565b81811115610daa5782602083870101525b50601f01601f19169290920160200192915050565b6001600160a01b0391909116815260200190565b6020808252825182820181905260009190848201906040850190845b81811015610e145783516001600160a01b031683529284019291840191600101610def565b50909695505050505050565b6000602080830181845280855180835260408601915060408482028701019250838701855b82811015610e7357603f19888603018452610e61858351610d74565b94509285019290850190600101610e45565b5092979650505050505050565b600060208252610c516020830184610d74565b600060608252610ea66060830186610d74565b9315156020830152506001600160a01b0391909116604090910152919050565b600060808252610ed96080830187610d74565b8281036020840152610eeb8187610d74565b90508281036040840152610eff8186610d74565b915050821515606083015295945050505050565b60208082526027908201527f456e7472792077697468207468697320706572736f6e494420646f6573206e6f6040820152661d08195e1a5cdd60ca1b606082015260800190565b6020808252603e908201527f4f6e6c792063686169726d616e20616c6c6f77656420746f207265676973746560408201527f72206e657720656475636174696f6e616c20696e737469747574696f6e730000606082015260800190565b6020808252601b908201527f416c65726164792070726573656e7420696e2072656769737472790000000000604082015260600190565b60208082526038908201527f456475636174696f6e616c20496e737469747574696f6e20776974682074686960408201527f73206164647265737320646f6573206e6f742065786973740000000000000000606082015260800190565b6020808252602e908201527f43616e27742073657420736b696c6c732066726f6d20616464726573732c206f60408201526d74686572207468616e204549277360901b606082015260800190565b60208082526027908201527f506572736f6e20776974682074686973206164647265737320646f6573206e6f6040820152661d08195e1a5cdd60ca1b606082015260800190565b60208082526028908201527f506572736f6e20776974682074686973206164647265737320616c6572616479604082015267081c1c995cd95b9d60c21b606082015260800190565b60208082526019908201527f506572736f6e20616c6572616479207265676973746572656400000000000000604082015260600190565b60208082526036908201527f456e7472792077697468207468697320656475636174696f6e616c20696e73746040820152751a5d1d5d1a5bdb88191bd95cc81b9bdd08195e1a5cdd60521b606082015260800190565b6002810460018216806111c957607f821691505b602082108114156111ea57634e487b7160e01b600052602260045260246000fd5b50919050565b634e487b7160e01b600052604160045260246000fdfea26469706673582212207dd676876ea0a2b7f54d1db0524c7da56943da02cb5c4b956a59cec2b49f5b2d64736f6c63430008010033",
    "sourcePath": "/home/david/Projects/HEBallot/contracts/MinistryOfEducation.sol",
    "compiler": {
        "name": "solc",
        "version": "0.8.1+commit.df193b15"
    },
    "functionHashes": {
        "appendLearner(address)": "e674254b",
        "chairman()": "87f7b975",
        "getCompetences()": "03114680",
        "getLearners(address)": "55f9eaa8",
        "getMembership(address)": "34c5a044",
        "people(address)": "07de9735",
        "pubKey()": "ac2a5dfd",
        "registerInstitution(string,address)": "bd23cd30",
        "registerPerson(string,string,string)": "7958822a",
        "registry(address)": "038defd7",
        "setSkills(address,string)": "cac7117f"
    },
    "gasEstimates": {
        "creation": {
            "codeDepositCost": "933600",
            "executionCost": "infinite",
            "totalCost": "infinite"
        },
        "external": {
            "appendLearner(address)": "107948",
            "chairman()": "1092",
            "getCompetences()": "infinite",
            "getLearners(address)": "infinite",
            "getMembership(address)": "infinite",
            "people(address)": "infinite",
            "pubKey()": "infinite",
            "registerInstitution(string,address)": "infinite",
            "registerPerson(string,string,string)": "infinite",
            "registry(address)": "infinite",
            "setSkills(address,string)": "infinite"
        }
    }
}